:020000040800F2
:10000000F0070020D5010008E51400084D0E000897
:10001000E1140008B5080008EB2700080000000004
:10002000000000000000000000000000751C000837
:10003000B908000800000000091B0008A11D000805
:10004000EF010008EF010008EF010008EF010008D0
:10005000EF010008EF010008EF010008EF010008C0
:10006000EF010008EF010008EF010008EF010008B0
:10007000EF010008EF010008EF010008EF010008A0
:10008000EF010008EF010008EF010008EF01000890
:10009000EF010008EF010008EF0100082D0900083A
:1000A000EF010008EF010008EF010008EF01000870
:1000B00045200008EF010008EF010008EF010008EB
:1000C000EF010008EF010008EF010008EF01000850
:1000D000EF010008EF010008EF0100084D250008BE
:1000E000BD080008EF010008EF010008EF0100085B
:1000F000EF010008EF010008EF010008EF01000820
:10010000EF010008EF010008EF010008EF0100080F
:10011000EF010008EF010008EF010008EF010008FF
:10012000EF010008EF010008EF010008EF010008EF
:1001300000F002F800F03FF80AA090E8000C8244BA
:100140008344AAF10107DA4501D100F034F8AFF297
:10015000090EBAE80F0013F0010F18BFFB1A43F0A5
:1001600001031847DC750000FC750000103A24BF3D
:1001700078C878C1FAD8520724BF30C830C144BF0C
:1001800004680C607047000000230024002500264E
:10019000103A28BF78C1FBD8520728BF30C148BFEA
:1001A0000B607047642900F04380002070471FB542
:1001B0001FBD10B510BD00F02FFA1146FFF7F7FF75
:1001C00003F012FD00F04DFA03B4FFF7F2FF03BC99
:1001D00002F00FFC0948804709480047FEE7FEE7A8
:1001E000FEE7FEE7FEE7FEE7FEE7FEE7FEE7FEE7E7
:1001F00004480549054A064B70470000A51D000844
:1002000031010008F0010020F0070020F003002079
:10021000F0030020704700000FB4044910B503AA92
:10022000029800F079F910BC5DF814FB2C00002056
:100230002DE9F0410646002410687529314616A5BF
:1002400010D0AFF30080002802DA404213A507E087
:1002500031688A0701D512A502E0490704D511A526
:10026000012401E0AFF3008000210A2206F12407F7
:1002700009E0B0FBF2FCB0FBF2F302FB1C003030F3
:1002800078541846491C0028F3D123462A463046A4
:10029000BDE8F04100F0E7B8000000002D000000CC
:1002A0002B000000200000002DE9F05F8946044685
:1002B0004FF0000ADFF824B1FB44C0F820A020462C
:1002C000E168884700287DD0252806D0D4E901219F
:1002D0009047206A401C2062F1E700255F462046D7
:1002E000E16888472028064607DB312E05D2B81979
:1002F00010F8200C08B10543F1E7A80701D525F057
:100300000405C4F81CA00027C4F818A02A2E09D0A0
:10031000304602F067FB38B304EB8708303EC8F87C
:10032000186019E059F8041B204604EB870291611C
:10033000E1688847012F064618D1E069002820DAD5
:1003400025F020051DE0D8F8180000EB800006EB32
:1003500040003038C8F818002046E1688847064653
:1003600002F040FB0028EED1012F0AD02E2E08D13A
:100370002046E16888477F1C0646022F45F020058D
:10038000C4DBA069002803DA404245F00105A06102
:10039000E80701D025F01005A6B1A6F14100192803
:1003A00002D8203645F400654A463146204625608D
:1003B0004D46FFF7F7FE60B1012807D0ED1D25F08F
:1003C000070000E007E000F1080978E705F10409FB
:1003D00075E730467AE7206ABDE8F09F3273000087
:1003E00040EA010310B59B070FD1042A0DD310C8B2
:1003F00008C9121F9C42F8D020BA19BA884201D904
:10040000012010BD4FF0FF3010BD1AB1D30703D04B
:10041000521C07E0002010BD10F8013B11F8014B01
:100420001B1B07D110F8013B11F8014B1B1B01D11D
:10043000921EF1D1184610BD02F0FF0343EA0322D9
:1004400042EA024200F07CB870477047704770473C
:1004500010B500F095F8006810BD10B5044600F026
:100460008FF8046010BD2DE9F0470D46994692467D
:10047000044600F124080168880604D5E06921F0EB
:100480001001216000E00120A84201DD471B00E0CF
:100490000027A1697A1902EB0900081AA0612078E7
:1004A000C00602D42046AFF30080002608E0D4E95D
:1004B00001211AF806009047206A401C761C206231
:1004C0004E45F4DB2078C0060AD52046AFF3008005
:1004D00006E0D4E9012130209047206A401C2062C8
:1004E000381EA7F10107F4DC07E0D4E9012118F870
:1004F00005009047206A401C2062281EA5F10105D6
:10050000F3DC2046AFF300802078000602D50220FD
:10051000BDE8F0870120FBE7074B70B50D467B4433
:1005200000F037F80446284600F046F810B14FF0C6
:10053000FF3070BD204670BD333600004FF0000222
:100540000429C0F0128010F0030C00F03B80CCF1C5
:10055000040CBCF1020F18BF00F8012BA8BF20F853
:10056000022BA1EB0C0100F02DB85FEAC17C24BF87
:1005700000F8012B00F8012B48BF00F8012B704751
:10058000004870478C01002001694A1C026108780C
:10059000704700B58FB0CDE90131002105910549C3
:1005A0007944CDE9031011466846FFF77DFE0FB090
:1005B00000BD0000E5FFFFFF007B00F080007047FA
:1005C0004FF0000200B5134694469646203922BFEC
:1005D000A0E80C50A0E80C50B1F12001BFF4F7AF37
:1005E000090728BFA0E80C5048BF0CC05DF804EB19
:1005F000890028BF40F8042B08BF704748BF20F887
:10060000022B11F0804F18BF00F8012B704700003B
:10061000004870478C0100207546FFF7F9FFAE4691
:1006200005006946534620F00700854618B020B5FE
:10063000FFF7DEFDBDE820404FF000064FF0000759
:100640004FF000084FF0000B21F00701AC46ACE87A
:10065000C009ACE8C009ACE8C009ACE8C0098D46E7
:10066000704710B50446AFF300802046BDE8104047
:10067000FFF7AABD21B1826842F00102826003E067
:10068000826822F0010282607047000010B50446C3
:100690001248844208D10121401501F063FA00217B
:1006A000601501F05FFA17E00D48844208D101217E
:1006B000001501F057FA0021201501F053FA0BE064
:1006C0000848844208D10121C80301F04BFA0021F7
:1006D0004FF4004001F046FA10BD00000024014034
:1006E00000280140003C0140014600208A6802F0D9
:1006F00004020AB1012000E0002070470146C86CE6
:1007000080B270470246002013680B400BB10120F5
:1007100000E000207047014600208A6802F00802CD
:100720000AB1012000E000207047000030B5024609
:100730000020002350680F4C20400D790C6844EADB
:1007400005242043506090680B4C2040D1E90254AE
:100750002C434D7944EA450420439060D06A20F44C
:1007600070000C7C641EE4B2234340EA0350D06264
:1007700030BD0000FFFEF0FFFDF7F1FFF0B50446CD
:100780000D4600200021092D11DDE068A5F10A06C3
:1007900006EB4607072606FA07F18843A5F10A0685
:1007A00006EB460603FA06F10843E0600CE0206918
:1007B00005EB4507072606FA07F1884305EB4506D2
:1007C00003FA06F108432061072A0FDA606B561E10
:1007D00006EB86071F2606FA07F18843561E06EB2E
:1007E000860605FA06F10843606322E00D2A0FDA57
:1007F000206BD61F06EB86071F2606FA07F18843F3
:10080000D61F06EB860605FA06F10843206310E0C2
:10081000E06AA2F10D0606EB86071F2606FA07F12D
:100820008843A2F10D0606EB860605FA06F1084399
:10083000E062F0BD816841F008018160704721B13C
:10084000826842F4A002826003E0826822F4A0027F
:1008500082607047816841F0040181607047000048
:1008600010B501200549086000200549C1F898012C
:1008700040F6AC51034801F0E6FD10BD9401214261
:10088000000021420004004008B50121042001F0CD
:1008900059F94FF40060ADF8000010208DF8030006
:1008A00003208DF802006946014800F0B1F908BD47
:1008B0000008014000BFFEE77047000070B54FF42C
:1008C000806000F0D5F838B30021144801F0BDFD78
:1008D0000121124801F005FC00BF4FF4806110486F
:1008E00000F06AFA0028F8D100210C4801F0F9FB69
:1008F0000A4801F023FC4FF4AA7100FB01F52846D9
:1009000005F022FA0446074905F020F90649086077
:100910004FF4806000F0A6F870BD0000002C01408C
:100920000008014000004843B00000202DE9F047D6
:10093000202000F09DF8002872D03A480068002876
:100940006ED1202000F08EF801F086F9364908605B
:10095000364A3749374803F06FFA374A374938483B
:1009600000F016FB374A3849384800F0E9FA3148B8
:10097000006805F0ADF90746354801684FF07E5034
:1009800005F018FB80463348006805F0DDF9814624
:10099000414605F039FA0546384605F0D5F9804656
:1009A0002B480168404605F02FFA0646294605F017
:1009B0005FF8044605F08CF9264908601F48B0F935
:1009C000000005F0C1F904462248006805F0BCF9B2
:1009D0000546224629462048006801F009FF1F49C4
:1009E00008600846006800F216301D490860084695
:1009F0000068B0F57A7F02DD4FF47A70086018481D
:100A00000068B0F5117F03DA4FF4117014490860E3
:100A10001348008881B24FF0804001F012FD00BF02
:100A2000BDE8F08714812142940000207800002066
:100A30007400002070000020860000208400002048
:100A400082000020800000207E0000207C0000202A
:100A50009C00002098000020A000002088000020BA
:100A60009000002001490860704700001404014014
:100A7000014600200022074B1B6803EA0102054BD8
:100A800014331B680B4013B10AB1012000E00020B1
:100A90007047000000040140002123498279002AA8
:100AA0003AD00A46126803689A430B461A600A1D38
:100AB000126803689A430B1D1A60027911440A6890
:100AC00003681A430A60184A0832126803689A4396
:100AD000154B08331A601A1D126803689A43124BAB
:100AE0000C331A604279102A0ED11A1F126803685B
:100AF0001A430D4B08331A601A1D126803681A4313
:100B0000094B0C331A600DE00749427911440A6819
:100B100003681A430A6005E0027911440A68036811
:100B20009A430A60704700000004014030B587B066
:100B300005460C460121042000F0F4FF01210820A5
:100B400001F000F8C020ADF8180004208DF81B005B
:100B500006A9134800F05CF8ADF81050ADF80C4051
:100B60000020ADF81200ADF80E0003A90D4801F009
:100B70009BFC00231A4603210A4801F0BEFA68468E
:100B800001F046FB0A20ADF808006946054801F06F
:100B9000E9FA0121034801F0A4FA07B030BD0000D2
:100BA000000C01400008004010B500200549086015
:100BB00001200549C1F898014FF47A71034801F00A
:100BC00042FC10BD9401214200002142000400407B
:100BD00030B500228B071C0F0F2303FA04F20B4BD6
:100BE0008C1053F824309343084C8D1044F8253072
:100BF00023468C1053F824308C07240F00FA04F499
:100C00002343024C8D1044F8253030BD08000140CC
:100C10002DE9F04102460025002600200023002493
:100C2000002791F803C00CF00F0591F803C00CF0F9
:100C3000100CBCF1000F03D091F802C04CEA05057E
:100C400091F800C0BCF1000F31D0146800202BE0F7
:100C50004FF0010C0CFA00F3B1F800C00CEA0306E7
:100C60009E4220D183004FF00F0C0CFA03F7BC43D7
:100C700005FA03FC4CEA040491F803C0BCF1280F08
:100C800006D14FF0010C0CFA00FCC2F814C00AE0C7
:100C900091F803C0BCF1480F05D14FF0010C0CFADC
:100CA00000FCC2F810C0401C0828D1D31460B1F871
:100CB00000C0BCF1FF0F34DD546800202EE000F1CD
:100CC000080C4FF0010808FA0CF3B1F800C00CEA68
:100CD00003069E4221D183004FF00F0C0CFA03F75C
:100CE000BC4305FA03FC4CEA040491F803C0BCF1D0
:100CF000280F05D100F1080C08FA0CF8C2F814808E
:100D000091F803C0BCF1480F07D100F1080C4FF077
:100D1000010808FA0CF8C2F81080401C0828CED34D
:100D20005460BDE8F0810000F0B50A4600230024BD
:100D30000021002500F00046B6F1004F02D11D4E03
:100D4000F16901E01B4E7168C0F3034583B200F402
:100D50004016B6F5401F08D121F07061154E766837
:100D600026F07066134F7E6012E000F48016B6F530
:100D7000801F06D1032606FA05F4A14341F07061F5
:100D800006E0460D360103FA06F6B14341F0706104
:100D900022B1460D360103FA06F6314300F0004653
:100DA000B6F1004F02D1034EF16101E0014E7160D6
:100DB000F0BD0000000001400246002093680B4097
:100DC0000BB1012000E000207047416170470161D4
:100DD0007047000010B50446072301222146094848
:100DE000FFF7CCFC01210748FFF729FD00BF0221D6
:100DF0000448FFF787FC0028F9D00248FFF77EFC83
:100E000010BD0000002401402DE9F04707460C46C4
:100E10000025002608E03846FFF7DCFF05440520E2
:100E200002F0A2F9701CC6B2A642F4DBB5FBF4F9DD
:100E3000484604F0A1FF04498046086004F064FFBE
:100E400080B2BDE8F08700003400002000BFFEE75C
:100E500010B54FF480510948FFF7B9FF4FF4005126
:100E60000648FFF7B4FF4FF400510448FFF7ADFF09
:100E70004FF480510148FFF7A8FF10BD000C01405E
:100E800010B54FF480510748FFF7A1FF4FF4005110
:100E90000448FFF79AFF4FF400510248FFF797FF0D
:100EA00010BD0000000C014010B54FF48051044803
:100EB000FFF78DFF4FF480510148FFF786FF10BD0B
:100EC000000C014008B50121082000F03BFE102075
:100ED0008DF803006020ADF8000003208DF80200BB
:100EE00069460248FFF794FE08BD00000008014073
:100EF0000EB50121092000F025FE48208DF80300E1
:100F00002020ADF8000003208DF8020069460B4850
:100F1000FFF77EFE05210120FFF75AFE20200190F9
:100F200001208DF80A0000208DF808000C208DF8B3
:100F3000090001A8FFF7B0FD0EBD0000000C014044
:100F40002DE9FC4104460D4616466B4606223B2120
:100F5000682000F0EFF90746BFB99DF801009DF841
:100F6000001040EA012000B220809DF803009DF8A7
:100F7000021040EA012000B228809DF805009DF88B
:100F8000041040EA012000B230803846BDE8FC8100
:100F90002DE9FC4104460D4616466B4606224321C8
:100FA000682000F0C7F90746BFB99DF801009DF819
:100FB000001040EA012000B220809DF803009DF857
:100FC000021040EA012000B228809DF805009DF83B
:100FD000041040EA012000B230803846BDE8FC81B0
:100FE00010B500200E4908600E48006820F47040DB
:100FF0000C4908600846006840F440500860002032
:101000000949C1F88C0100F011F801200449086079
:1010100000F00CF800200449C1F8900110BD000058
:1010200090812142000C01400080214210B5022035
:1010300002F0C0F810BD000008B50121092000F041
:1010400081FD01210A48FFF76FFE1820ADF800006E
:1010500010208DF8030003208DF802006946054832
:10106000FFF7D6FD18210348FFF7B1FE08BD0000C9
:1010700000023000000C014010B500200E4908604D
:101080000E48006820F470400C490860084600686B
:1010900040F44050086001200949C1F88C01FFF775
:1010A000C5FF012004490860FFF7C0FF0020044984
:1010B000C1F8900110BD000090812142000C014058
:1010C0000080214270B5054600241648006820F4CF
:1010D0007040144908600846006840F40040086009
:1010E000002614E0002010490860FFF79FFF012050
:1010F0000E49C1F890016006040E0B488438006860
:1011000008B1601CC4B2FFF791FF701CC6B2082E74
:10111000E8DB15B9FFF7B0FF01E0FFF761FF2046FC
:1011200070BD0000000C01409081214200802142EE
:1011300070B504461248006820F4704010490860F9
:101140000846006840F44050086000200D490860DF
:10115000002512E0E0090B49091F08606006040E33
:1011600001200949C1F89001FFF760FF00200549FF
:101170000860FFF75BFF681CC5B2082DEADB70BD95
:10118000000C0140908121420080214210B50E48A0
:10119000006820F470400C4908600846006840F47C
:1011A000405008600120094908600949C1F89001D0
:1011B000FFF73CFF002005490860FFF737FF0020DC
:1011C0000349C1F8900110BD000C01408C812142FF
:1011D0000080214210B50E48006820F470400C4990
:1011E00008600846006840F4405008600020094943
:1011F00008600949C1F88C01FFF718FF0120054973
:1012000008600549C1F88C01FFF710FF10BD000010
:10121000000C0140908121420080214210B5002441
:101220001448006820F470401249086008460068BD
:1012300040F40040086001200F490860FFF7F6FE07
:1012400001200E49C1F89001FFF7F0FE07E0601C95
:10125000C4B2FA2C03DDFFF7BDFF012010BD064824
:10126000803800680028F2D10349091D086000BFDA
:10127000F4E70000000C01408C81214200802142F3
:1012800010B5FFF7D9FE80216B2000F0D7F864205D
:1012900001F06AFF00216B2000F0D0F8032000F07D
:1012A0008BF8002000F080F8C82000F0AAF8002198
:1012B000382000F0C3F800216A2000F0BFF80021B8
:1012C000232000F0BBF88021372000F0B7F875200C
:1012D00000F013F80446682C0BD101216B2000F0BC
:1012E000ADF800216C2000F0A9F8642000F089F826
:1012F00001E0012010BD0020FCE770B50446FFF7B7
:1013000045FFD020FFF714FFFFF788FF2046FFF7C7
:101310000FFFFFF783FFFFF739FFD120FFF708FF2B
:10132000FFF77CFF0020FFF7CDFE0546FFF752FFD9
:10133000284670BD2DE9F04106460F4614461D466D
:10134000FFF724FF002141EA4601C8B2FFF7F0FE93
:10135000FFF764FF20B1FFF73DFF0120BDE8F081FA
:101360003846FFF7E5FEFFF759FFFFF70FFF0121B2
:1013700001EB4601C8B2FFF7DBFEFFF74FFF0DE0C0
:10138000012C04D10020FFF79DFE287003E001200E
:10139000FFF798FE2870601EC4B26D1C002CEFD1C0
:1013A000FFF718FF0020D9E710B50446E006010E4C
:1013B0001C2000F043F810BD10B50446E006010EF5
:1013C0001B2000F03BF810BD70B504460025BC2C76
:1013D00001DB012510E0622C01DB02250CE02A2C48
:1013E00001DB032508E0142C01DB042504E00A2CB2
:1013F00001DB052500E0062529461A2000F01EF82D
:1014000070BD70B50446B4F57A7F01DD4FF47A748F
:10141000042C00DA04244FF47A7090FBF4F0401EA0
:10142000C5B22946192000F009F80546264604EB06
:10143000D671C1F34F00FFF7C7FF70BD70B5054609
:101440000C46FFF7A3FED020FFF772FEFFF7E6FE83
:1014500018B1FFF7BFFE012070BD2846FFF768FEF8
:10146000FFF7DCFE2046FFF763FEFFF7D7FE18B15B
:10147000FFF7B0FE0120EFE7FFF7ACFE0020EBE73F
:101480002DE9F04105460E4617469846FFF77EFEC9
:10149000002141EA4501C8B2FFF74AFEFFF7BEFE50
:1014A00020B1FFF797FE0120BDE8F0813046FFF73D
:1014B0003FFEFFF7B3FE00240CE018F80400FFF72E
:1014C00037FEFFF7ABFE18B1FFF784FE0120EBE714
:1014D000601CC4B2BC42F0DBFFF77CFE0020E3E7F7
:1014E00000BFFEE770471CB54FF4A06000F056F84F
:1014F00017208DF8040001208DF8070000208DF8DA
:1015000005008DF8060001A800F010F827208DF8DE
:10151000000001208DF8010000208DF8020001205C
:101520008DF80300684600F001F81CBD70B500217D
:1015300000230F22C47804B3154C246804F4E0643B
:10154000C4F5E064210AC1F10403CA40447804FAF6
:1015500003F184781440214309010E4C0678A1550B
:10156000047804F01F050124AC4005786D11AD002E
:1015700005F1E025C5F8004109E0047804F01F05F5
:101580000124AC40044D0678761145F8264070BD24
:101590000CED00E000E400E080E100E002490143DE
:1015A000024A1160704700000000FA050CED00E0EF
:1015B00070B5002418E004F1B000002100F0EEF94D
:1015C0000021084600F0EAF90021102000F0E6F9B9
:1015D000002505E00121002000F0E0F9681CC5B2FB
:1015E000802DF7DB601CC4B2082CE4DB70BD00006A
:1015F00008B50121082000F0A5FA4FF44050ADF8DD
:10160000000010208DF8030003208DF802006946C9
:101610003C48FFF7FDFA4FF440513A48FFF7D7FB3B
:101620004FF4487001F0A0FD0021AE2000F0B6F9A3
:101630000021084600F0B2F90021102000F0AEF9B8
:101640000021402000F0AAF90021B02000F0A6F906
:101650000021812000F0A2F90021FF2000F09EF976
:101660000021A12000F09AF90021A62000F096F9AF
:101670000021A82000F092F900213F2000F08EF90F
:101680000021C82000F08AF90021D32000F086F95B
:101690000021084600F082F90021D52000F07EF9F3
:1016A0000021802000F07AF90021D82000F076F99E
:1016B0000021052000F072F90021D92000F06EF918
:1016C0000021F12000F06AF90021DA2000F066F92B
:1016D0000021122000F062F90021DB2000F05EF909
:1016E0000021302000F05AF900218D2000F056F939
:1016F0000021142000F052F90021AF2000F04EF933
:1017000008BD0000000C014070B504460D4605F10F
:10171000B000002100F042F9102141EA141000212C
:1017200000F03CF904F00F00002100F037F970BD23
:101730002DE9F04707460E469046994600250024BD
:10174000A8F12000C5B27F2F02DD0027B01CC6B271
:10175000B9F1100F24D131463846FFF7D5FF0024E8
:1017600008E004EB0511194A505C012100F016F95C
:10177000601CC4B2082CF4DB701CC1B23846FFF701
:10178000C3FF002409E004EB051108310F4A505C47
:10179000012100F003F9601CC4B2082CF3DB12E055
:1017A00031463846FFF7B0FF00240AE005EB45015B
:1017B000074A02EB4101085D012100F0EFF8601CCF
:1017C000C4B2062CF2DBBDE8F0870000B663000867
:1017D0008E6100082DE9F04104460F4615469846F3
:1017E00000260FE0AA5D434639462046FFF7A0FFDA
:1017F00004F10800C4B2782C02DD0024B81CC7B282
:10180000701CC6B2A85D0028ECD1BDE8F0810000D4
:101810002DE9FF4F85B0054691469A46129C00205F
:1018200003900021484604F0BBFA10D223462D2233
:1018300028460699FFF77CFF484604F0EDF821F0B2
:101840000041CDE9000103F061FB814605E023463C
:10185000202228460699FFF76BFFBB46584604F046
:101860008BFA4946029004F09BFB0490AAF1060013
:1018700000F0FF0804EBD471491005EB8101C8B2F8
:1018800023462E2202940699FFF752FF204604EBCE
:10189000D07105EB6101CDB200263EE0A8EB060059
:1018A000401EC1B20A2003F073FA009004F064FAFB
:1018B00001460190484604F049F9029004F008FA04
:1018C0000A2190FBF1F201FB1200C7B2039898B90C
:1018D000A8F10100B0420FDD67B904EBD4714910E3
:1018E00001FB0651C8B22346202202940699FFF755
:1018F0001FFF10E00120039004EBD471491001FB9D
:101900000651C8B207F13001CAB2234602940699C3
:10191000FFF70EFF00BF701CC6B24645BEDB1D4977
:10192000049804F071FA009004F0D2F90A2190FBB7
:10193000F1F201FB12003030C0B204EBD471491057
:1019400005EB8101CDE90104C8B22346019A06994D
:10195000FFF7EEFE1049049804F056FA009004F0E8
:10196000B7F90A2190FBF1F201FB12003030C0B24E
:1019700004EBD471491001EB81012944CDE9010444
:10198000C8B22346019A0699FFF7D2FE09B0BDE816
:10199000F08F0000000020410000C84270B50446EE
:1019A0000D461DB1E0B200F08BFF02E0E0B200F0A6
:1019B00071FF70BD30B589B005460C460121042089
:1019C00000F0C0F80121084600F0ACF80120ADF8A5
:1019D000200018208DF8230003208DF8220008A98C
:1019E0001848FFF715F9ADF81850ADF8144000206D
:1019F000ADF81600ADF81A0005A94FF0804000F0D0
:101A000053FD6020ADF804000020ADF80C0001206B
:101A1000ADF806000020ADF80A0001A94FF08040A3
:101A200000F000FC00214FF0804000F047FC012155
:101A3000880700F047FB0121880700F052FB09B03E
:101A400030BD00000008014030B589B005460C46A5
:101A50000121022000F066F801210C2000F072F84C
:101A600018208DF807008020ADF8040003208DF8C1
:101A7000060001A92148FFF7CBF818208DF80300D4
:101A80000120ADF8000003208DF8020069461C48D3
:101A9000FFF7BEF8ADF81C50ADF818400020ADF8C7
:101AA0001A00ADF81E0006A9164800F0FDFC6020E3
:101AB000ADF808000120ADF80A000020ADF80E00D6
:101AC0000220ADF8100002A90E4800F001FC02A9A6
:101AD0000C4800F05DFC08210A4800F04BFC08218E
:101AE000084800F0A5FC0121064800F0EBFA0121AE
:101AF000044800F0F6FA09B030BD000000080140CB
:101B0000000C014000040040704700000146002026
:101B1000034A506820F4404008435060704700007A
:101B20000010024029B1064AD2690243044BDA612F
:101B300004E0034AD2698243014BDA617047000036
:101B40000010024029B1064A92690243044B9A618F
:101B500004E0034A92698243014B9A617047000096
:101B60000010024029B1064AD2680243044BDA60F1
:101B700004E0034AD2688243014BDA6070470000F8
:101B80000010024030B500210022002400232D4D1A
:101B90006D6805F00C0121B1042905D0082923D175
:101BA00005E0294D056022E0274D05601FE0254D29
:101BB0006D6805F47012234D6D6805F480340225BC
:101BC00005EB92421CB9214D554305600BE01D4DBC
:101BD0006D6805F400351DB11C4D5543056002E0EC
:101BE000194D5543056002E0174D056000BF00BF69
:101BF000144D6D6805F0F0010909154D6B5C056821
:101C0000DD4045600F4D6D6805F4E061090A104D37
:101C10006B5C4568DD4085600A4D6D6805F4605178
:101C2000C90A0B4D6B5C4568DD40C560054D6D68AC
:101C300005F44041890B074D6B5CC568B5FBF3F5B6
:101C4000056130BD0010024000127A0000093D001D
:101C5000140000202400002005490888B0F5704FCA
:101C600002DBA0F57F40FF380021014A1180704758
:101C700024080040704710B500F002F810BD0000C5
:101C80000CB50020019000903348006840F480308B
:101C90003149086000BF3048006800F4003000900F
:101CA0000198401C0190009818B90198B0F5A06FF8
:101CB000F1D12948006800F4003010B101200090F3
:101CC00001E0002000900098012843D123480068DB
:101CD00040F01000214908600846006820F0030029
:101CE00008600846006840F0020008601A48406832
:101CF000194948600846406848600846406840F412
:101D0000806048600846406820F47C1048600846BF
:101D1000406840F4E81048600846006840F0807071
:101D2000086000BF0C48006800F000700028F9D07F
:101D30000948406820F003000749486008464068A9
:101D400040F00200486000BF0348406800F00C000B
:101D50000828F9D10CBD000000100240002002400C
:101D60000020034908600349C1F89801704700004A
:101D70009401214200002142042808D14FF0E021C3
:101D8000096941F004014FF0E022116107E04FF0D2
:101D9000E021096921F004014FF0E0221161704750
:101DA0007047000010B51348006840F00100114969
:101DB000086008464068104908400E4948600846D7
:101DC00000680E4908400B4908600846006820F486
:101DD000802008600846406820F4FE0048604FF408
:101DE0001F008860FFF747FF4FF00060044908605C
:101DF00010BD0000001002400000FFF8FFFFF6FEDB
:101E000008ED00E0F0B50C46154600220021068CD6
:101E10004FF6FE773E400684028B018C4FF60C761F
:101E200032407E1C06EA03162E433243104EB04267
:101E30000ED0104EB0420BD0B0F1804F08D00E4EF5
:101E4000B04205D00D4EB04202D00D4EB04206D188
:101E50004FF6FD76314044F00106314305E04FF680
:101E6000F576314044F00106314302830184F0BD30
:101E7000002C0140003401400004004000080040F4
:101E8000000C0040F0B50C4615460022002100264B
:101E9000078C4FF6EF7C07EA0C070784028B018C56
:101EA0004FF6FF7707EA041640F6FF473A404FF631
:101EB000FF7707EA03373A434FF6FF7707EA05272C
:101EC0003A43114FB8420ED0104FB8420BD0B0F188
:101ED000804F08D00E4FB84205D00E4FB84202D006
:101EE0000D4FB84206D14FF6DF77394046F0100764
:101EF000394305E04FF65F77394044F01007394326
:101F000002830184F0BD0000002C01400034014038
:101F10000004004000080040000C0040F0B50C46F2
:101F20001546002200210026078C4FF6FF6C07EAB9
:101F30000C070784828B018C4FF6FF7707EA042693
:101F40004FF60C773A404FF6FF7707EA03172F4317
:101F50003A43114FB8420ED0104FB8420BD0B0F1F7
:101F6000804F08D00E4FB84205D00E4FB84202D075
:101F70000D4FB84206D14FF6FF57394046F48077EF
:101F8000394305E04FF2FF57394044F48077394335
:101F900082830184F0BD0000002C01400034014028
:101FA0000004004000080040000C0040F0B50C4662
:101FB0001546002200210026078C4EF6FF7C07EA1A
:101FC0000C070784828B018C4FF6FF7707EA0436F3
:101FD00040F6FF473A404FF6FF7707EA05273A43B6
:101FE0004FF6FF7707EA03373A43114FB8420ED056
:101FF000104FB8420BD0B0F1804F08D00E4FB8420E
:1020000005D00E4FB84202D00D4FB84206D14DF662
:10201000FF77394046F48057394305E047F6FF57CC
:10202000394044F48057394382830184F0BD000075
:10203000002C014000340140000400400008004032
:10204000000C004010B50121880700F07AF8012843
:102050002ED10121800700F041F816480068401C8D
:10206000144908604FF082411348006803F098FE5D
:1020700012D201201149086000201149C1F8B001B5
:102080000E490C390860FEF7EBFB40F216314FF0B9
:10209000804000F0D6F902E00020084908600548B9
:1020A0000068192804D1FFF75BFE00200149086091
:1020B00010BD0000AC000020B0000020AC012142A7
:1020C0000000214221B1028842F08002028004E037
:1020D00002884FF67F731A4002807047CA4302821B
:1020E000704721B1028842F00102028004E00288B8
:1020F0004FF6FE731A4002807047F0B50C46154645
:102100001E460021002200230189028B038C4FF61A
:10211000F877394021434FF6FC473A4040F2011727
:102120003A434FF6DD773B404FF6FF7707EA061755
:102130002F433B43018102830384F0BD0146888C19
:10214000704730B50246002000230024158A05EAB6
:102150000103958905EA010413B10CB1012000E0E7
:10216000002030BD70B505460C46244885420ED08F
:10217000234885420BD0B5F1804F08D021488542D5
:1021800005D02148854202D02048854200D100E098
:1021900000BF208850B92389A28861882846FFF7AC
:1021A00031FEE188284600F052F925E02088042815
:1021B0000AD12389A28861882846FFF763FEE18857
:1021C000284600F04DF917E0208808280AD1238915
:1021D000A28861882846FFF7A1FEE188284600F022
:1021E0004CF909E02389A28861882846FFF7DEFEC2
:1021F000E188284600F04AF970BD0000002C01403B
:10220000003401400004004000080040000C004081
:10221000002101804180012181800021C180018154
:102220007047000070B5002400220023058C4FF693
:10223000FE7635400584028C8388048B4FF68F75BB
:102240002C40B51E2C400D882C43751E2A400D894C
:102250002A434D882A43144DA8420BD0134DA8425F
:1022600008D0134DA84205D0124DA84202D0124DFD
:10227000A84213D14FF6F7752A404D892A434FF6ED
:10228000FB752A408D882A434FF6FF652B404FF699
:10229000FF552B408D892B43CD892B4383800483AD
:1022A000CD888586028470BD002C01400034014039
:1022B0000040014000440140004801400A4600211E
:1022C000018B4FF6F77319401143018370470000EB
:1022D00070B5002400220023058C4FF6EF763540C0
:1022E0000584028C8388048B48F6FF752C404FF6DA
:1022F000FF452C400D884FF6FF7606EA05252C4356
:102300004FF6DF752A400D8906EA05152A434D88E8
:1023100006EA05152A43154DA84202D0144DA842DD
:102320001DD14FF67F752A404D894FF6FF7606EA9C
:1023300005152A434FF6BF752A408D8806EA051514
:102340002A434FF6FF352B404FF2FF752B408D8906
:1023500006EA85052B43CD8906EA85052B43838054
:102360000483CD880587028470BD0000002C0140E5
:10237000003401400A460021018B4FF2FF731940DF
:102380004FF6FF7303EA02231943018370470000ED
:1023900070B5002400220023058C4FF6FF663540FF
:1023A0000584028C8388848B4FF68F752C404FF602
:1023B000FC752C400D882C434FF6FF552A400D89A3
:1023C0004FF6FF7606EA05252A434D8806EA0525DD
:1023D0002A43154DA84202D0144DA8421DD14FF2F8
:1023E000FF752A404D894FF6FF7606EA05252A43F8
:1023F0004FF6FF352A408D8806EA05252A434EF61A
:10240000FF752B404DF6FF752B408D8906EA0515AB
:102410002B43CD8906EA05152B4383808483CD8821
:102420008587028470BD0000002C0140003401400B
:102430000A460021818B4FF6F773194011438183BF
:102440007047818670478187704781847047028B0F
:102450004FF6F3731A400283028B0A4302837047DC
:10246000028B4FF2FF331A400283028B4FF6FF7349
:1024700003EA01231A4302837047828B4FF6F373FA
:102480001A408283828B0A4382837047828B4FF289
:10249000FF331A408283828B4FF6FF7303EA0123D6
:1024A0001A43828370470000002202881D4B984225
:1024B0000ED01D4B98420BD0B0F1804F08D01B4B73
:1024C000984205D01A4B984202D01A4B984204D138
:1024D0004FF68F731A404B881A43174B984207D018
:1024E000164B984204D04FF6FF431A40CB881A434C
:1024F00002808B8883850B8803850A4B98420BD01A
:10250000094B984208D00E4B984205D00D4B98428B
:1025100002D00D4B984201D10B7A038601238382AE
:1025200070470000002C01400034014000040040CE
:1025300000080040000C0040001000400014004063
:1025400000400140004401400048014038B540F2DD
:102550002551344800F089F8002862D040F2255116
:10256000304800F067F82F4800F03AF9C4B21C2058
:10257000012181402C4A430942F8231000BF00206A
:10258000009002E00098401C009041F288310098D1
:102590008842F7DB1C20012181404209920002F1B0
:1025A000E022C2F8001100BF2048008800F400407B
:1025B00058BB1E48008800F4804060B10A2C03D04C
:1025C00000201A49088020E01848008840F40040A4
:1025D0001649088019E00D2C06D11448008840F4F3
:1025E00080401249088010E010480088C0F30D00B8
:1025F0000F490C540D480088401C0C4908800846BF
:102600000088C72801DD00200880412C02D0452C1D
:1026100006D102E0FEF7C8FA02E0FFF7A1FB00BF17
:1026200000BF38BD0048004080E100E030000020DD
:10263000B400002010B50022002340F66A14A14225
:1026400000D100BF0A1201249440A3B2DC430480ED
:1026500010BD21B1828942F40052828104E0828956
:102660004DF6FF731A408281704770B50246002410
:1026700000230025002040F66A16B14200D100BFB9
:10268000C1F3421501F01F03012606FA03F3012DE1
:1026900002D19689334006E0022D02D1168A3340DA
:1026A00001E0968A33400C12012606FA04F41688DB
:1026B000344013B10CB1012000E0002070BDF0B532
:1026C0000346002400260025002040F66A17B94280
:1026D00000D100BF1846C1F3421401F01F060127C4
:1026E00007FA06F5012C01D10C3004E0022C01D1CF
:1026F000103000E014301AB107682F43076002E081
:102700000768AF430760F0BD2DE9F04786B0054686
:102710000E460024A24600BFA1460027B08900B1A2
:1027200000BF2F462C8A4CF6FF700440F08804430B
:102730002C82AC894EF6F3100440B08831890843EE
:10274000718908430443AC81AC8A4FF6FF400440D2
:10275000B0890443AC8201A8FFF714FA1F488742EE
:1027600002D1DDF810A001E0DDF80CA0A88900F48A
:10277000004040B10AEBCA0000EB0A103168490082
:10278000B0FBF1F807E00AEBCA0000EB0A10316871
:102790008900B0FBF1F86420B8FBF0F004012009D7
:1027A000642101FB1089A88900F4004040B1322067
:1027B00000EBC900B0FBF1F000F00700044308E0B3
:1027C000322000EB09106421B0FBF1F000F00F00A3
:1027D00004432C8106B0BDE8F087000000380140BA
:1027E00001468888C0F30800704700BFFEE700007C
:1027F0002DE9F05F05460E46144621460C48006858
:1028000003F002FB82463146284603F0D3FB8346A1
:1028100008480168584603F0F7FA8146514603F02C
:10282000C9FB804603F054FA07463846BDE8F09FDE
:10283000A8000020A40000202DE9F04105462C4608
:102840004FF480511248FEF7C0FA00261CE02746DC
:1028500007F08007802F04D1B9010D48FEF7B7FAC1
:1028600004E04FF400510A48FEF7AFFA6006040E88
:102870004FF480510648FEF7AAFA4FF480510448FD
:10288000FEF7A3FA701CC6B2082EE0DBBDE8F081AB
:10289000000C014010B50446FEF7DAFA7820FFF785
:1028A000CBFFFEF701FB0020FFF7C6FFFEF7FCFAA7
:1028B0002046FFF7C1FFFEF7F7FAFEF7E1FA10BD79
:1028C00010B50446FEF7C4FA7820FFF7B5FFFEF70F
:1028D000EBFA4020FFF7B0FFFEF7E6FA2046FFF7DD
:1028E000ABFFFEF7E1FAFEF7CBFA10BD490050EA64
:1028F000C12018BF04204A0D18BF40F0010040F26B
:10290000FF72B2EB515F08BF40F00200012808BF20
:10291000052070472DE9F0414F1E00EBC70104462A
:10292000D1E9000115461E4637F006020DD02A46B1
:10293000334602F097FD7F1E04EBC703D3E9002363
:1029400002F016FB37F00602F1D1022F25D0042F3A
:1029500013D0062F18BFBDE8F0812A46334602F097
:1029600081FDD4E90A2302F003FB2A46334602F034
:1029700079FDD4E9082302F0FBFA2A46334602F037
:1029800071FDD4E9062302F0F3FA2A46334602F039
:1029900069FDD4E9042302F0EBFA2A46334602F03B
:1029A00061FDD4E9022302F0E3FA2A46334602F03D
:1029B00059FDD4E90023BDE8F04102F0D9BA012263
:1029C00003F09FBB02F0D4BA002213461046114612
:1029D00002F08ABB024A0020110703F092BB0000FC
:1029E00001FDFFFF30380A2801D201207047002086
:1029F000704700BF7047000000B587B00121042078
:102A0000FFF7A0F801214802FFF79CF81020ADF86D
:102A1000180000208DF81B0006A91C48FEF7F8F8E6
:102A20004FF40040FFF772F81948FDF72FFE002021
:102A300001908DF808008DF809004FF46020039094
:102A40000020049001208DF8140001A91048FDF722
:102A50006DFE01210E48FDF70DFE0D48FDF7EAFE63
:102A600000BF0B48FDF757FE0028FAD10848FDF7D4
:102A7000F1FE00BF0648FDF737FE0028FAD101211C
:102A80000348FDF7DCFE07B000BD00000008014070
:102A9000002401402DE9F04D8D4F21F0004A86B011
:102AA00005460C46BA452ADBAAEB070028430AD0A4
:102AB0008848824501DC1AD1CDB106B02846BDE870
:102AC000F04DFFF77CBF844A844B284602F0CAFCD5
:102AD00007460E46824A834B2846214602F0C2FC36
:102AE00006B03A463346BDE8F04D02F041BA012047
:102AF000FDF7B3FC06B0BDE8F04DFFF765BF7A48BF
:102B0000824542DABAF1795F0BDA2846FFF7EEFE2A
:102B1000042808BFFFF75EFF284606B02146BDE83F
:102B2000F08D2A460B46104602F09CFC8346024676
:102B30006E480E460B4606217844FFF7EBFE5A46D8
:102B4000334602F08FFC804669488A465A4633462F
:102B500004217844FFF7DEFE5A46334602F082FC39
:102B600000223B4602F004FA02460B46404651461C
:102B700002F0BAFA2A46234602F074FC06B02A464E
:102B80002346BDE8F04D02F0F3B9284624F0004199
:102B900000223D463B4602F063FD4FF0FF3203F05A
:102BA000B0FA0646024653480F460B4606217844C3
:102BB000FFF7B0FE32463B4602F054FCCDE900017F
:102BC0004D4832463B4604217844FFF7A3FE324687
:102BD0003B4602F047FC00222B4602F0C9F983462F
:102BE00002913046394602F027F9804643480D46A7
:102BF000504517DCDDE900015A46029B02F074FAE9
:102C000042462B4602F02EFC42462B4602F0B0F91B
:102C1000012203F076FA304A304B02F013FE304ABC
:102C2000304B4CE04FF0000A52460B46404602F053
:102C30009FF9CDE9031052462B461046194602F083
:102C400011FC32463B4602F00BFDDDE9033202F097
:102C50004BFA06460F46DDE900015A46029B02F098
:102C600043FA8346009101223046394603F049FA7F
:102C7000194A1A4B02F0F4FC06460F460122404660
:102C8000294603F03EFA5A46009B02F0EBFB32461F
:102C90003B4602F0D7FD06460F4601225046294624
:102CA00003F02FFA0E4DDFF858802A46434602F013
:102CB000D7FC32463B4602F0D3FC2A46434602F09C
:102CC000CFFC002CD8BF81F0004106B0BDE8F08DEC
:102CD0000000F03F0000F07F075C143326A6913C13
:102CE000182D4454FB21F93F0000E03FC44A000086
:102CF000DA4A00004E4A0000644A00003333EF3FD6
:102D0000FB21E93F2DE9F84F04460D4621F0004034
:102D100000917349814211DC7249884201DC06D17D
:102D20002CB120462946BDE8F84FFFF748BE6E4853
:102D3000002DCCBF6D496E49BDE8F88F6D498142C9
:102D400011DD6D498142D8BF4FF0FF366DDD204661
:102D50002946FFF7CBFD042808BFFFF73BFE2046BE
:102D60002946BDE8F88F6549654F25F00045814249
:102D700033DD6449814219DD002632464FF080433D
:102D80002046294602F0F4F880468A460122204671
:102D9000294603F0B6F900223B4602F053FD4246B5
:102DA000534602F0A1F904460D463EE001260022FA
:102DB000BA463B462046294602F0DAF880460F46DE
:102DC000002253462046294602F03CFD42463B463F
:102DD00002F08AF904460D4627E04B4981421BDD8B
:102DE000DFF828A10226002253462046294602F099
:102DF00039FB00223B4602F0BBF880460F4600221A
:102E000053462046294602F01DFD42463B4602F04D
:102E10006BF904460D4608E0032622462B460020A7
:102E20003B4902F061F904460D4622462B46104606
:102E3000194602F017FB8B46824602460B4602F00B
:102E400011FB07460246334888460B460621784464
:102E5000FFF760FD52465B4602F004FB82462E48B7
:102E60008B463A46434605217844FFF753FD3A46E0
:102E7000434602F0F7FA02460B46002E50465946EA
:102E80000CDA02F075F822462B4602F0EBFA01B09C
:102E900022462B46BDE8F04F02F0E2BB02F068F894
:102EA00022462B4602F0DEFA1C4A7A4402EBC603A5
:102EB000D3E9002302F0C6FC22462B4602F0C2FCF6
:102EC000174A7A4402EBC603D3E9002302F0C8FB99
:102ED000009A002AB8BF81F00041BDE8F88F0000D9
:102EE000000010440000F07F182D4454FB21F93FEE
:102EF000FB21F9BF0000DC3F0000203E0000F33F53
:102F00000000F03F0000E63F008003400000F83F73
:102F10000000F0BF6648000024480000C2470000DF
:102F20008A4700002DE9F04D9446CCF1000423F0CF
:102F300000464CEA0404594F46EAD4749A4688463F
:102F400021F00042BC4206D8454240EA050442EA6C
:102F5000D474BC4204D9BDE8F04D6246FFF732BDDF
:102F6000AAF14055A5F17F6555EA0C040BD0022467
:102F700004EAAA744A4DDFF82CE144EAD87452EA14
:102F8000000B04D00CE0BDE8F04DFFF7BBBE002CF9
:102F900014BF012CBDE8F08D022C30D0032C32D0B0
:102FA00056EA0C0B0AD0BE4220D1BA4209D126F013
:102FB000804622F080423346114617E000291ADB92
:102FC00025E0DFF8E4B0FB44002C04BFDBE900019E
:102FD000BDE8F08D012C02BFDBE9000181F000416A
:102FE000BDE8F08D022C0AD0032C0CD0BA4212D1CD
:102FF000B8F1000F0BDA2A482C49BDE8F08D2846BD
:103000002B49BDE8F08D28467146BDE8F08D244877
:103010002849BDE8F08D921B12153C2AC4BF204FF1
:10302000244E10DCBAF1000FBEBF12F13C0F002796
:103030003E4608DB624602F057F821F00041FFF7F8
:1030400061FE07460E4694B1012C08BF86F000468B
:103050000DD0194A194B022C3846314615D002F0D2
:10306000F1FB2A46BDE8F04D114B02F0EBBB00220C
:1030700013463846314602F08FF904BF0220FDF7AF
:10308000ECF938463146BDE8F08D02F0DBFB2A460C
:10309000BDE8F04D064B02F0E3BA00000000F07FFF
:1030A000182D4454FB2109C01E470000FB21F9BF25
:1030B000FB210940FB21F93F075C143326A6A13C04
:1030C0002DE9F0410446E07800F0C006E07800F019
:1030D0003F05607800F0010098B1EF102846E9172D
:1030E00005EB5171C910A5EBC101491C01F0FF08A6
:1030F0000B48006820B10A484146026838469047AC
:1031000000BF607800F0080030B10548406818B191
:10311000B011034A516888470020BDE8F0810000E3
:103120007C01002010B56FF00400FEF725FE0A4870
:1031300000680A49B0FBF1F00949087008460078B8
:1031400000EB4001C1EBC0104FF6FF7101EAC00077
:103150000449088010BD00000000002000127A0021
:10316000280000202A0000200146114A12884A4304
:103170004FF0E0235A6100229A611A46126942F028
:1031800001021A6100BF4FF0E022106900F0010255
:103190001AB100F48032002AF5D04FF0E022126913
:1031A00022F001024FF0E0231A6100229A61704779
:1031B0002A0000200146114A12784A434FF0E023CA
:1031C0005A6100229A611A46126942F001021A619C
:1031D00000BF4FF0E022106900F001021AB100F4C4
:1031E0008032002AF5D04FF0E022126922F001026D
:1031F0004FF0E0231A6100229A61704728000020F6
:1032000038B5044664B120208DF8000028208DF8E0
:10321000010030208DF8020038208DF8030004E012
:10322000A32204216846FDF707F96A46042140F607
:103230009E2001F06DFD01F0E5F938BD3EB5044674
:1032400002208DF80000CA208DF80100E3208DF8DF
:10325000020009208DF803006A460421682001F06D
:1032600057FDA3208DF8000004F0400048B1C020B5
:103270008DF80100C8208DF80200C2208DF80300EF
:1032800006E0A3208DF801008DF802008DF8030000
:1032900004F4C07048B1C4208DF80400CC208DF82F
:1032A0000500C6208DF8060006E0A3208DF8040076
:1032B0008DF805008DF80600A3208DF807008DF825
:1032C00008008DF809006A460A2140F6A72001F09F
:1032D0001FFD04F0030018B120208DF8000002E06B
:1032E000D8208DF800006A46012140F6B62001F092
:1032F0000FFD04F0200018B1012000F0ADF802E04D
:10330000002000F0A9F804F4C07008B304F4807041
:1033100060B1B2208DF800008B208DF80100B6203E
:103320008DF802009B208DF803000BE0B0208DF893
:10333000000080208DF80100B4208DF8020090205C
:103340008DF803006A46042140F6A22001F0E0FC5B
:1033500004F0010020B3F8208DF800006A46012136
:103360004FF40B6001F0D4FCFA21072000F0FCFAC6
:10337000072000F0C3FA012000F0E3FA642000F017
:10338000C3FB4FF4FA7000F0D2FBC821304800F0C4
:1033900073FA282000F08CFA0A2000F09CFA08E06A
:1033A000D8208DF800006A4601214FF40B6001F02F
:1033B000AFFC04F0020018B1D9208DF8000002E043
:1033C000D8208DF800006A46012140F23D7001F0DE
:1033D0009FFC04F0040018B1012000F069F802E03D
:1033E000002000F065F804F0100018B10120FFF78C
:1033F00007FF02E00020FFF703FF44F00800154933
:10340000488101F0FFF800201249887304F0400061
:1034100018B10846807B801D887304F4C07020B109
:103420000C48807B801D0B49887304F0140020B188
:103430000848807B10300749887304F0030020B1EE
:103440000448807B001D0349887300203EBD0000B6
:1034500009E3CA027C0100203EB504466CB10EA10E
:10346000D1E900208968CDE9002002916A4609214E
:103470004FF4976001F04CFC3EBD0AA2D2E9001067
:103480009268CDE9010200916A4609214FF49760E4
:1034900001F03EFCF0E70000B8AAB38DB4980D35FA
:1034A0005D000000B8AAAAAAB088C3C5C700000082
:1034B00038B5044664B1C0208DF80000C2208DF8F4
:1034C0000100C4208DF80200C6208DF8030004E03E
:1034D0008B2204216846FCF7AFFF6A46042140F6C0
:1034E000982001F015FC01F08DF838BD10B5C82307
:1034F0004FF48062024940F6F63000F017FF10BD2D
:10350000F86900082DE9F04F8DB00746884615464A
:103510009946DDE9166B0024002030806B49887BDA
:103520005A4605A900F0CEFF18B1601E0DB0BDE8E7
:10353000F08F6648807A00F01400002867D09DF86C
:10354000140000069DF8151040EA01409DF8161081
:1035500040EA01209DF81710084328609DF81800E4
:1035600000069DF8191040EA01409DF81A1040EA43
:1035700001209DF81B10084368609DF81C000006A0
:103580009DF81D1040EA01409DF81E1040EA012000
:103590009DF81F100843A8609DF8200000069DF8C4
:1035A000211040EA01409DF8221040EA01209DF8D8
:1035B00023100843E86004F11000C4B22868001426
:1035C0000190686800140290A86800140390E868ED
:1035D0000014049001984043029901FB01000399F3
:1035E00001FB0100049901FB010ABAF1706F02DBD3
:1035F000BAF1885F05DD01F005F800203080401E3B
:1036000094E7B6F9000040F48070308000BF2F4886
:10361000807A00F0400020B305A9601C085C095DB9
:1036200040EA012000B2A8F8000005A9E01C095CEE
:1036300005AAA01C105C41EA002000B2A8F8020014
:1036400005A9601D095C201D105C41EA002000B244
:10365000A8F80400A01DC4B2B6F9000040F00800AC
:1036600030801A48408900F4C07008B305A9601C76
:10367000085C095D40EA012000B2388005A9E01C21
:10368000095C05AAA01C105C41EA002000B2788009
:1036900005A9601D095C201D105C41EA002000B2F4
:1036A000B880A01DC4B2B6F9000040F070003080B0
:1036B0000648807A00F0030018B105A90819FFF741
:1036C000FFFC484600F07EFB00202FE77C01002035
:1036D00030B585B0044616A207CA02AB07C3C82C92
:1036E00003DD4FF0FF3005B030BDC82090FBF4F093
:1036F000401E85B2280A8DF80000E8B28DF801005E
:103700006A46022140F2162001F002FB10B14FF090
:10371000FF30E8E702AA0C2140F6C12001F0F8FAD8
:1037200010B14FF0FF30DEE7044884810020DAE773
:10373000FEF2ABC4AAF1DFDFBBAFDFDF7C0100200C
:1037400010B586B0044647A00068039046A0006804
:10375000029046A00068019045A00068009004F027
:10376000030003A9085C8DF8140003A8C4F3C10189
:10377000405C8DF8150003A8C4F38111405C8DF8FE
:10378000160004F0030002A9085C8DF8100002A8DE
:10379000C4F3C101405C8DF8110002A8C4F381118B
:1037A000405C8DF8120005AA032140F2264001F08A
:1037B000AFFA18B14FF0FF3006B010BD04AA0321D4
:1037C00040F22A4001F0A4FA10B14FF0FF30F3E7C5
:1037D000019805900098049004F0040058B19DF8F9
:1037E000140040F001008DF814009DF8100040F026
:1037F00001008DF8100004F0200058B19DF815006C
:1038000040F001008DF815009DF8110040F0010016
:103810008DF8110004F4807058B19DF8160040F046
:1038200001008DF816009DF8120040F001008DF89F
:10383000120005AA03214FF4886001F069FA10B163
:103840004FF0FF30B8E704AA032140F2314001F005
:103850005FFA10B14FF0FF30AEE706480481002058
:10386000AAE700004CCD6C000CC92C00365676003F
:10387000264666007C010020F8B505460E464FF44A
:103880007A7095FBF0F000FB06F4200E8DF8000036
:10389000200C8DF80100200A8DF80200E0B28DF8AE
:1038A00003006A4604214FF4AE7001F031FAF8BD0E
:1038B00038B50446052094FBF0F084B220128DF850
:1038C0000000E0B28DF801006A4602214FF4AD70AD
:1038D00001F01EFA38BD38B50446052094FBF0F01F
:1038E00084B220128DF80000E0B28DF801006A4623
:1038F00002214FF4AC7001F00BFA38BD38B5044624
:103900000020009004F0010020B19DF8000040F07C
:103910003000009004F0020020B19DF8000040F05B
:103920000C00009004F0040020B19DF8000040F06D
:10393000030000906A4601214FF4A47001F0E8F9F9
:1039400038BD38B50446012C01DA012402E0042C0C
:1039500000DD0424601EC0B200906A46012140F2DE
:103960004F1001F0D5F938BD2DE9FC4706460F464A
:1039700006F0070010B1B7F5C86F03DD4FF0FF3058
:10398000BDE8FC87384602F0F7F98146594902F054
:10399000DDF88046684600F0ABFB9DF80000022889
:1039A00006D0042816D0082826D0102848D135E0A3
:1039B0004FF08D41404602F027FA814602F0A4F90B
:1039C00084B24D49404602F01FFA814602F09CF94C
:1039D00085B238E04FF08C41404602F015FA81463E
:1039E00002F092F984B24549404602F00DFA814650
:1039F00002F08AF985B226E04FF08B41404602F092
:103A000003FA814602F080F984B23D49404602F053
:103A1000FBF9814602F078F985B214E04FF08A4153
:103A2000404602F0F1F9814602F06EF984B2354960
:103A3000404602F0E9F9814602F066F985B202E0FB
:103A40004FF0FF309CE700BF20128DF80400E0B279
:103A50008DF8050028128DF80600E8B28DF80700F1
:103A600006F00100A0B101AA02214FF4EA7001F0B2
:103A70004FF910B14FF0FF3082E70DF1060202213D
:103A80004FF4927001F044F910B14FF0FF3077E736
:103A900006F00200A0B101AA02214FF4EC7001F07F
:103AA00037F910B14FF0FF306AE70DF1060202213D
:103AB0004FF4947001F02CF910B14FF0FF305FE734
:103AC00006F00400A0B101AA02214FF4EE7001F04B
:103AD0001FF910B14FF0FF3052E70DF1060202213D
:103AE0004FF4967001F014F910B14FF0FF3047E732
:103AF000002045E700004843000040460000C04564
:103B0000000040450000C04438B50446052094FB41
:103B1000F0F085B228128DF80000E8B28DF80100AF
:103B20006A4602214FF4EF7001F0F2F838BD38B563
:103B30000446052094FBF0F085B228128DF80000B1
:103B4000E8B28DF801006A4602214FF4ED7001F0F1
:103B5000DFF838BD00BF054A128802F04002002A93
:103B6000F9D0C2B2014B1B1D1A80704700480040BB
:103B700010B50446204600F00FF80346E01C00F0A4
:103B80000BF843EAC00083B2A01D00F005F843EA39
:103B9000801083B2184610BD014691F90020002A1A
:103BA00001DD00201EE091F90020002A01DA042046
:103BB00018E091F90120002A01DD012012E091F9BD
:103BC0000120002A01DA05200CE091F90220002AE8
:103BD00001DD022006E091F90220002A01DA062028
:103BE00000E007207047000008B5FDF77CFCFFF7F8
:103BF00099FAFCF749FE4FF4165001F043F9FDF72E
:103C0000F7FCFDF7D5FCFEF7F7FEFDF75BF90021A9
:103C100041F61F40FDF718FF8F2142F20F70FDF7AC
:103C2000C9FE40F216314FF08040FEF70AFC002139
:103C30004FF6FF70FCF77AFF10233FA204211920F2
:103C4000FDF7C8FDFDF71CFB05E010233DA2042194
:103C50001920FDF7BFFD00F001FA0028F5D110236F
:103C60003CA204211920FDF7B5FD01203C49086064
:103C70004FF4C870FFF778FA00203A49C1F8AC0158
:103C8000FDF736F9FDF794FC102337A20021084612
:103C9000FDF7A0FD102339A203210020FDF79AFDB6
:103CA00010233BA206210020FDF794FD42E00A21EB
:103CB0000420FDF7A9F8009001F0C1FB80464FF009
:103CC0006632384B01F0CEFB06460022364B01F03F
:103CD0000BFA0446354A364B01F0C4FB824601F02C
:103CE00015F934490860102009230090324800215A
:103CF00002683720FDF78CFD3048006801F088FB32
:103D0000054600222E4B01F0ADFB074601F0FEF800
:103D10000446102009232246032100903720FDF796
:103D200077FD1020092300902248062102683220E6
:103D3000FDF76EFDBBE700004D5055363035302E97
:103D40002E2E00004D505536303530204572726FA2
:103D5000720000004D505536303530204F4B210059
:103D6000AC0121420000214250697463683A20206E
:103D70002020202020202043000000005370656593
:103D8000643A202020202020202020520000000023
:103D9000506F7765723A2020202020202020205666
:103DA0000000000066660A4000FEAF40AE47E17AC0
:103DB000142E2640340000207000002094000020C3
:103DC0000000D03F7047000070B50446002624F084
:103DD0000104184890F8240008B1002070BD15486F
:103DE000807A10B94FF0FF30F8E71248057C807AEE
:103DF0002040104908740846007CA04202D04FF0D1
:103E0000FF3600E0002614B90A48007D18B10120F1
:103E100000F0CAFF02E0002000F0C6FF3CB100F055
:103E2000F1FB20B1034805744FF0FF30D6E7304670
:103E3000D4E70000380000202DE9F04F99B0044687
:103E40000D4616464FF07E574FF000084FF0000920
:103E50004FF0000A12A813A918AB0EAACDE9001062
:103E600014A916A8FFF74EFB18B1012019B0BDE840
:103E7000F08FBDF84C0000F4807000287ED00E98C2
:103E800001F062FF83464FF09D4101F05FFE07465F
:103E90000F9801F059FF83464FF09D4101F056FE07
:103EA0008046109801F050FF83464FF09D4101F08D
:103EB0004DFE8146119801F047FF83464FF09D412A
:103EC00001F044FE824639464FF0804001F09CFFED
:103ED0004946059001F098FF414607904FF0404059
:103EE00001F092FF5146059001F08EFF0690079970
:103EF00001F0BEFD834601F08FFDCDE90801FEF71C
:103F0000C9FD4FF06632544BCDE90A0101F0AAFA1F
:103F1000CDE90C0100F0FAFF206049464FF08040E7
:103F200001F072FF4946029001F06EFF4146049095
:103F30004FF0404001F068FF4146029001F064FFFD
:103F40000390049902F036F883464FF07E5101F059
:103F50008FFD059001F060FDCDE9080139464FF075
:103F6000804001F051FF4146039001F04DFF49466A
:103F700004904FF0804001F047FF00E068E05146B8
:103F8000039001F041FF8346049901F071FD059013
:103F900001F042FDCDE90601DDE90823FEF7C2FF8D
:103FA0004FF066322C4BCDE90A0101F05BFACDE906
:103FB0000C0100F0ABFF28605146504601F024FF91
:103FC00049460490484601F01FFF41460390404691
:103FD00001F01AFF39460190384601F015FF0090B4
:103FE000019901F045FD0290039901F0E3FF83463A
:103FF000049901F0DFFF059001F00EFDCDE9080105
:104000005146384601F000FF49460490404601F011
:10401000FBFE0390049901F02BFD4FF080410590C9
:1040200001F0F2FE834601F0F7FCCDE90601DDE97F
:104030000823FEF777FF4FF06632074BCDE90A0100
:1040400001F010FACDE90C0100F060FF306001E0F2
:1040500002200BE7002009E766A64C4070B500245B
:10406000FCF7EAFF00F06AF800283AD1782000F067
:10407000E7FDC4B20CB1012070BD7820FFF7A4FEAB
:10408000C4B20CB10220F7E7642000F08BFDC4B28B
:104090000CB10320F0E7FFF729FAC4B20CB10420F9
:1040A000EAE71248FFF764FD0546FFF749FBC4B293
:1040B0000CB10520E0E740F27310FFF7BFF8C4B27F
:1040C0000CB10620D8E76420FFF702FBC4B20CB1A4
:1040D0000720D1E7012000F061FCC4B21CB1092027
:1040E000CAE70A20C8E70020C6E7000064000020F5
:1040F00001461148407A30B1012807D0022808D083
:1041000003280CD108E0022008700BE0042008709E
:1041100008E00820087005E01020087002E04FF069
:10412000FF30704700BF0448C07C18B108784006D3
:10413000000E08700020F4E7380000201CB5802035
:104140008DF80000654A1268917C644A52681078C4
:104150006B460122FDF794F910B14FF0FF301CBD02
:104160006420FFF701F800208DF800005B4A126818
:10417000917C5A4A526810786B460122FDF780F90B
:1041800010B14FF0FF30EAE7544A1268917D534A6C
:10419000526810786B460622FDF7CCF810B14FF04C
:1041A000FF30DCE79DF80500C007400F9DF80310C5
:1041B00001F0010140EA41009DF8011001F0010108
:1041C00040EA010494B1012C03D101214348C17498
:1041D00031E0022C03D100214048C1742BE021467C
:1041E0003FA0FCF719F84FF0FF30B8E73B4A1268E0
:1041F000D1783A4A526810786B460122FDF79AF856
:1042000010B14FF0FF30AAE79DF8000000F00F0456
:104210002CB93D48FCF700F84FF0FF309FE7042C25
:1042200006D13AA0FBF7F8FF01212C48C17402E047
:1042300000212A48C174FF2128488172FF202749A4
:104240000872FF2125484172C1724FF6FF71C1818A
:10425000FF21017481740121017380F82210002173
:1042600080F823104175017516300160416081604E
:10427000163880F8241080F82510C1844FF4FA60B5
:1042800000F0D4FB10B14FF0FF3068E7022000F0DF
:104290009DFA10B14FF0FF3061E72A2000F040FC9A
:1042A00010B14FF0FF305AE7322000F07BFC10B124
:1042B0004FF0FF3053E70020FFF786FD10B14FF0BD
:1042C000FF304CE7002000F0C3FA10B14FF0FF3090
:1042D00045E7002000F0B4FC002040E73800002053
:1042E000556E737570706F7274656420736F667449
:1042F000776172652070726F647563742072657681
:104300002025642E0A000000F076000848616C66E3
:104310002073656E7369746976697479207061724F
:104320007420666F756E642E0A0000002DE9F0435C
:1043300085B005460E4690469946294890F82500D6
:1043400020B14FF0FF3005B0BDE8F08316B94FF053
:10435000FF30F8E7002423E0281B102801DD10209F
:1043600000E0281B87B232193946204600F0D0FC05
:1043700010B14FF0FF30E6E701AA3946204600F0C1
:1043800001F910B14FF0FF30DDE730193A4601A9CD
:10439000FCF726F810B16FF00100D4E7E01984B201
:1043A000AC42D9DB4FEA28208DF8000008F0FF006E
:1043B0008DF801000A4A1268917E094A5268107805
:1043C0006B460222FDF75CF810B14FF0FF30BAE700
:1043D0000121034880F82510A0F826900020B2E7BC
:1043E0003800002038B50446282C02DD4FF0FF309D
:1043F00038BDDCB9002000F05DFB00208DF8000026
:1044000007208DF801002E4A1268917C2C4A5268D0
:1044100010786B460222FDF733F810B14FF0FF30F1
:10442000E6E70021264801750020E1E7012000F0C1
:1044300041FB20208DF80000012C06D100208DF8D2
:104440000100052000F06CFB17E0052C06DC0120C4
:104450008DF80100052000F063FB0EE0142C06DC53
:1044600002208DF801000A2000F05AFB05E003202D
:104470008DF80100142000F053FB9DF80100072186
:1044800001EB8010C0B28DF801000D4A1268917CDA
:104490000B4A526810786B460222FCF7F1FF10B10C
:1044A0004FF0FF30A4E70821054881720021017315
:1044B000012101750020FFF787FC002098E700002C
:1044C00038000020F8B504460F4616462C4890F8F0
:1044D000240010B94FF0FF30F8BD2948807A10B998
:1044E0004FF0FF30F8E7264A1268917A244A526862
:1044F00010786B460222FCF71DFF10B14FF0FF3021
:10450000EAE79DF801009DF8001040EA0125A54268
:1045100003DA00203070401EDEE71948406840880A
:10452000B5EB600F17DD164A1268517C144A5268C9
:1045300010786B460122FCF7FDFE10B14FF0FF3002
:10454000CAE79DF8000000F0100020B100F05AF812
:104550006FF00100C0E7E2B2094B1B68D97A084B43
:104560005B6818783B46FCF7E5FE10B14FF0FF3072
:10457000B2E795FBF4F0401E30700020ACE700007D
:1045800038000020F8B504460D46164616B94FF01F
:10459000FF30F8BD1A48807A10B94FF0FF30F8E7C5
:1045A00020128DF80000E0B28DF801009DF80100A6
:1045B0002844134949684989884202DD4FF0FF3099
:1045C000E7E70F4A1268117E0D4A526810786B4671
:1045D0000222FCF755FF10B14FF0FF30D9E7EAB2E5
:1045E000074B1B68597D064B5B6818783346FCF710
:1045F000A1FE10B14FF0FF30CBE70020C9E700006B
:104600003800002008B57048807A10B94FF0FF30AC
:1046100008BD002000906C4A1268D17B6A4A52683B
:1046200010786B460122FCF72BFF10B14FF0FF30E2
:10463000EEE7654A12685179634A526810786B4612
:104640000122FCF71DFF10B14FF0FF30E0E75E4A9A
:10465000126811795C4A526810786B460122FCF7A7
:104660000FFF10B14FF0FF30D2E7574890F8240009
:10467000002853D00C200090534A12681179524AF6
:10468000526810786B460122FCF7FAFE10B14FF029
:10469000FF30BDE73220FEF767FDC02000904A489A
:1046A000807A00F0010020B19DF8000040F0200069
:1046B0000090454A12681179434A526810786B4657
:1046C0000122FCF7DDFE10B14FF0FF30A0E73E48BD
:1046D000407C10B10220009001E0002000903A4A96
:1046E0001268D17B384A526810786B460122FCF779
:1046F000C7FE10B14FF0FF308AE700200090324A29
:1047000012685179304A526810786B460122FCF7E2
:10471000B7FE002855D04FF0FF3079E70420009015
:10472000294A12681179284A526810786B4601228A
:10473000FCF7A6FE10B14FF0FF3069E72248807CFD
:1047400020B92148807A00F0010010B94020009083
:1047500001E0602000901C4A126811791A4A5268E0
:1047600010786B460122FCF78BFE10B14FF0FF3042
:104770004EE73220FEF7F8FC1348407C10B10120D0
:10478000009001E0002000900F4A1268D17B0E4A91
:10479000526810786B460122FCF772FE10B14FF0A0
:1047A000FF3035E7084A12685179074A5268107895
:1047B000054B10330122FCF763FE10B14FF0FF30C0
:1047C00026E7002024E700003800002038B5044622
:1047D0001E48807A10B94FF0FF3038BD022C06D049
:1047E000042C07D0082C08D0102C0CD108E0002095
:1047F00000900BE00820009008E01020009005E0F9
:104800001820009002E04FF0FF30E6E700BF0F48AD
:10481000407A9DF80010B0EBE10F01D10020DCE7F9
:104820000A4A1268D179094A526810786B46012207
:10483000FCF726FE10B14FF0FF30CEE79DF80000E8
:10484000C110024841720020C7E700003800002074
:1048500038B504465048807CA04201D1002038BDC4
:10486000002C46D04C4A126811794B4A5268107895
:104870006B460122FCF75EFD10B14FF0FF30EEE712
:104880009DF8000020F020000090434A1268117942
:10489000414A526810786B460122FCF7F1FD10B1D5
:1048A0004FF0FF30DBE70320FEF75EFC02200090B4
:1048B000394890F8220020B19DF8000040F08000B7
:1048C0000090354890F8230020B19DF8000040F09A
:1048D00030000090304A1268117D2F4A52681078DB
:1048E0006B460122FCF7CCFD002851D04FF0FF3081
:1048F000B5E7294A12681179274A526810786B4641
:104900000122FCF717FD10B14FF0FF30A7E7224856
:10491000807A00F0010028B19DF8000040F02000EE
:10492000009004E09DF8000020F0200000901A4A5A
:1049300012681179184A526810786B460122FCF708
:104940009FFD10B14FF0FF3089E70320FEF70CFC0C
:10495000114890F8220010B18020009001E0002062
:1049600000900D4890F8230020B19DF8000040F021
:1049700030000090084A1268117D074A526810788A
:104980006B460122FCF77CFD10B14FF0FF3066E76B
:1049900001488474002062E73800002038B50446DE
:1049A000214890F82400A04201D1002038BD24B352
:1049B0001D4890F8250010B94FF0FF30F6E70020B1
:1049C00000F0F2F90020FFF743FF1749C88C00F010
:1049D000E9F8002000901449496808786B460122E4
:1049E0002321FCF74DFD01210F4880F82410012000
:1049F00000F0DAF9FFF706FE13E0002000F0D4F92A
:104A00000948007C00900849496808786B460122F3
:104A10002321FCF735FD0021034880F82410FFF71F
:104A2000F1FD0020C2E700003800002038B5044640
:104A30001F48807A10B94FF0FF3038BDFA2C09D0EA
:104A4000B4F5FA7F09D0B4F57A7F09D0B4F5FA6FDE
:104A50000CD108E0002000900BE00820009008E056
:104A60001020009005E01820009002E04FF0FF3089
:104A7000E3E700BF0E48007A9DF80010B0EBE10FAD
:104A800001D10020D9E70A4A12689179084A526890
:104A900010786B460122FCF7F3FC10B14FF0FF30A9
:104AA000CBE79DF80000C010014908720020C4E760
:104AB0003800002038B50446184890F82300A0427A
:104AC00001D1002038BD14B13020009001E0002059
:104AD00000901248807C20B19DF8000040F0020058
:104AE00000900E4890F8220020B19DF8000040F0A0
:104AF00080000090094A1268117D084A52681078B7
:104B00006B460122FCF7BCFC10B14FF0FF30D9E737
:104B1000024880F823400020D4E70000380000203D
:104B200038B504461E48807A10B94FF0FF3038BDC2
:104B3000BC2C02DB0120009015E0622C02DB02207D
:104B4000009010E02A2C02DB032000900BE0142CD4
:104B500002DB0420009006E00A2C02DB0520009016
:104B600001E0062000900E48C07A9DF800108842AF
:104B700001D10020DBE70A4A12689178084A52689E
:104B800010786B460122FCF77BFC10B14FF0FF3030
:104B9000CDE79DF800100248C1720020C7E7000071
:104BA0003800002038B504462448807A10B94FF008
:104BB000FF3038BD214890F8240010B14FF0FF308D
:104BC000F7E71E48007D50B134B1282C04DCE0B278
:104BD000FFF708FC0020ECE70020FFF703FC042CA3
:104BE00001DA042404E0B4F57A7F01DD4FF47A742D
:104BF0004FF47A7090FBF4F0401EC0B200900F4A60
:104C0000126851780D4A526810786B460122FCF701
:104C100037FC10B14FF0FF30CBE79DF80000401C8F
:104C20004FF47A7191FBF0F081B20448C1810146E2
:104C3000C9894810FFF774FF0020BAE73800002048
:104C400038B5044604F0700010B10120009005E072
:104C500014B10020009001E0402000902B4A12681F
:104C6000917C2A4A526810786B460122FCF708FCB6
:104C700020B1002125488172481E38BD9DF80000F2
:104C800020F04001214801730020009004F0400012
:104C900020B99DF8000040F00400009004F02000CE
:104CA00020B99DF8000040F00200009004F01000D0
:104CB00020B99DF8000040F00100009004F00800C9
:104CC00020B99DF8000040F0380000900F4A1268AB
:104CD000D17C0E4A526810786B460122FCF7D0FB5B
:104CE00020B1002109488172481EC6E724B1082C72
:104CF00002D00020FFF7DEFE044884720021017517
:104D00003220FEF731FA0020B7E70000380000201B
:104D1000F8B504460D46164616B94FF0FF30F8BDFB
:104D20001A48807A10B94FF0FF30F8E720128DF85A
:104D30000000E0B28DF801009DF8010028441349FD
:104D400049684989884202DD4FF0FF30E7E70F4AA2
:104D50001268117E0D4A526810786B460222FCF7E9
:104D60008FFB10B14FF0FF30D9E7EAB2074B1B6859
:104D7000597D064B5B6818783346FCF781FB10B110
:104D80004FF0FF30CBE70020C9E7000038000020DB
:104D900010B50246012000E050430B1EA1F10104B2
:104DA000E1B2F9D110BD000038B50446214890F8B1
:104DB0002400C0B114B10220009001E00020009056
:104DC0001C4A1268D17B1B4A526810786B4601223C
:104DD000FCF756FB10B14FF0FF3038BD9DF80010C6
:104DE0001448417423E01348807A10B94FF0FF3023
:104DF000F3E724B10F48407C08B10020EDE714B17F
:104E00000120009001E0002000900A4A1268D17B46
:104E1000084A526810786B460122FCF731FB10B14A
:104E20004FF0FF30D9E79DF8001002484174002090
:104E3000D3E70000380000202DE9F04106460F4678
:104E400000F01AFC041E0D4618BF0120284320F074
:104E50000040C0F17F6000F1E040C00F0ED0301C78
:104E600018BF0120384320F00040C0F17F6000F1FE
:104E7000E040C00F04BF0120FBF7EFFA20462946AF
:104E8000BDE8F08110B586B0044601211C48FCF74E
:104E900049FE4FF48060ADF8140003208DF8160031
:104EA00018208DF8170005A91648FBF7B1FE4FF43E
:104EB0000060ADF8140004208DF8170005A9114812
:104EC000FBF7A6FE01940020ADF80800ADF80A003B
:104ED000ADF80C00ADF810000C20ADF80E0001A9E3
:104EE0000948FDF711FC012240F225510648FDF763
:104EF000E6FB01210448FDF7ACFB06B010BD000045
:104F000008000400000C01400048004021F000426D
:104F1000A2F16052B2F5801F01F0004328BFD2F128
:104F20007F6C0BD95FEA001C43EAC20242EB50706F
:104F300018BF704728BF20F001007047B2F5801FEE
:104F4000BCBF184670474FEA410C1CF5001F02D247
:104F5000084601F020B870B500F02EFB0000008973
:104F6000FFF7F6BF4FF00040A0F58000704700004B
:104F700010B591EA030F48BF83F0004300F16A8443
:104F8000841A71EB030C05D2121943EB0C03001BBE
:104F900061EB0C01DFF824E14FEA1154A4EB135C40
:104FA0001EEA430F18BF9EEA445F73D023EA0E0344
:104FB000DCF1200E21EA045143F4801332D322FAAB
:104FC0000CFE10EB0E0023FA0CFE41EB0E01CCF1AF
:104FD000200E03FA0EFE10EB0E0051F10001B1F5A8
:104FE000801FCCF1200E32D201EB045112FA0EF2E6
:104FF000BDE8104058BF7047401C38BF5FEA42020E
:1050000018BF7047002814BF20F0010041F10001D3
:105010004FEA410313F5001F38BF7047A1F1C041AB
:1050200000F018BB012A43EB0302ACF1200CDCF1C9
:105030001F0E32BF4FF0000E23FA0CF310EB0300EB
:1050400041EB0451B4EB115FD0D0A1EB045101F559
:10505000801149085FEA300001EB04510ED350F192
:10506000000038BF12FA0EFE08D1BDE81040C9E7B3
:10507000401C38BF5FEA4202CAD1C3E7BDE8104016
:105080004FEA410313F5001F38BF7047A1F1C0413B
:1050900000F0E0BA9EEA445F08D011EA5E0FBDE876
:1050A000104004BF01F0004100207047BDE81040EF
:1050B00070B500F081FA00BF64FBBE3E0000E0FF67
:1050C00002494FF0000000F0EABF00BF0000F87F87
:1050D000491058BFC1F140415B1058BFC3F1404374
:1050E0008B42EFF3008070472DE9C04130B4DFF808
:1050F000A0C23CEA111418BF3CEA131400F0EC8083
:1051000081EA03051CEA111444EAD57418BF1CEAAD
:10511000131500F0C780A4EB05044FF0004545EAE5
:10512000C12145EAC32341EA505143EA525304F1F5
:105130007F74994204F500344FEAC0204FEAC2223E
:1051400008BF904200F09C804FEA13650FF24016B2
:10515000765D4FEA134506FB05F7C7F1807706FB3E
:1051600007F74FEAD737A7FB03687642C8F58038C0
:10517000A7FB06CE38BFA8F1010807FB08E64FF0F1
:10518000000EA6FB028CE6FB03CEDCF1000CCEF198
:10519000004E38BFAEF1010EA6FB0C584FF00007D1
:1051A0004FF00005E6FB0E87A1FB08C6A0FB07CE6B
:1051B00016EB0E0645F10005E1FB076515F1E04E23
:1051C0007EBFA4F580345FEA46066D4116F1800784
:1051D00045F100054FEA17274FEA066647EA0567DB
:1051E000A6F1DE46B6F1805F4FEA15251FD9384695
:1051F00024F0010C05EBC471BCF1FE6F01EB0C1146
:1052000002D8F0BCBDE8008124425CBF01F5801EDD
:105210009EEAC47F02D4F0BCBDE80081244238D4A9
:10522000F0BCA1F1C041BDE8004100F013BA4FEA63
:10523000D22242EA43524FEAD323A7FB02864FEA27
:10524000D02040EA415007FB03661EEA0E0F4FEAEA
:10525000D12105FB026658BFA6EB0056B6EB0056FF
:105260004FEA520E4EEAC37E18EB0E0E56EB530E6B
:10527000BDD518EB02085E417F1C55F10005B6E76D
:105280004FF480154FF000074FF000064FF0000874
:10529000ADE7F0BC4FF0000001F1C04101F000416A
:1052A000BDE8008111EA0C1F0CEA131500D00CE0D8
:1052B00013EA0C1F00F025804FF00000F0BC81EADB
:1052C000030101F00041BDE80081F0BCBDE80041F0
:1052D00081EA030100F0BEB9F0BCBDE8004170B541
:1052E00000F06AF9097EFC3E00F007B881EA03018C
:1052F0004FF0000001F00041704781EA030100F027
:10530000A9B9F0BCBDE800414FF000002149704749
:10531000FFFDFBF9F7F5F4F2F0EEEDEBE9E8E6E47A
:10532000E3E1E0DEDDDBDAD8D7D5D4D3D1D0CFCD01
:10533000CCCBCAC8C7C6C5C4C2C1C0BFBEBDBCBB3A
:10534000BAB9B8B7B6B5B4B3B2B1B0AFAEADACAB35
:10535000AAA9A8A8A7A6A5A4A3A3A2A1A09F9F9E0F
:105360009D9C9C9B9A9999989797969595949393C1
:10537000929191908F8F8E8E8D8C8C8B8B8A898958
:1053800088888787868585848483838282818180DB
:105390000000FF070000F87F51EA030C17D41CF54A
:1053A000801F58BFBCF5801F00F10680994218BFCE
:1053B000704708BF9042704707D711F5801F58BF4C
:1053C00013F5801F19D499427047894270471CF524
:1053D000801F08D5BCF5801FF7D58B4218BF7047DA
:1053E00008BF824270474FF4001C1CEB410F38BFCE
:1053F0001CEB430F01D28B42704770B500F0DCF814
:10540000922449004FF000514FF08053FFF760BEE7
:1054100010F0004248BF4042B0FA80F310FA03F1A6
:105420000AD0C3F11D0303F580634FEA415002EB3C
:10543000035202EBD12170474FF000007047B0FAE1
:1054400080F310FA03F10AD0C3F11D0303F5806362
:105450004FEA41504FEA035202EBD12170474FF01F
:1054600000007047DFF848C170B51CEA111E1EBF6E
:105470001CEA13159EEA0C0F95EA0C0F00F06F80E2
:1054800081EA030423EA4C134EEAD47E21EA4C114C
:1054900041F4801143F48013AE44A1FB024CA0FB05
:1054A0000365AEF17F7E361955EB0C05A1FB034C6D
:1054B0004CF10003A0FB021C16EB0C06654153F1F6
:1054C0000003094218BF46F0010613F4007F0BD118
:1054D0004FEA03314FEA0530340341EA155140EAFF
:1054E00016506FF003020AE04FEAC3214FEAC520CD
:1054F000F40241EA555140EA56506FF0020202EBC5
:105500002E4201EB025585EACE710AD05FEA440CC7
:1055100018BF24F0004450F1000041F1000120EADE
:10552000D47040F2FE7C624500D270BDA84214BF28
:105530004FF080444FF04044002E08BF0024BEF1DD
:10554000806FA8BFA1F1C041BDE8704080F28280A9
:105550004FF0000001F1C04101F0004170479EEAA8
:105560000C0F0CEA131518BF95EA0C0F06D04FF07C
:10557000000081EA030E0EF0004170BD00F01CF83F
:105580008900013E00F007B800F009B84FEA430C6B
:105590005FEA5C5C08D081EA030100F05BB84FEA87
:1055A000410C5FEA5C5CF6D14FF0000001497047A6
:1055B0000000FF070000F87F0EF1020E2EF0030E30
:1055C0005EF8046B364205D4012A43EB030515F55A
:1055D000001F12D8012841EB010C1CF5001F0CD84C
:1055E0000ED14FEAD17C15F5001F0CEB4C0C0CF1E1
:1055F000020C08BF4CEBD37C04E04FF0080C01E038
:105600004FEAD37C0CEB4C0526FA05F606F00706AC
:10561000B6F1040C06D20EEB860CBDE870404CF0DF
:10562000010C6047DFE80CF0090B02024FF000416B
:105630004FF00000A1F5002170BD19461046012869
:1056400051EB010418BFD4F5001484BF002001F011
:10565000004170BD0808A0F500114FEA3101704704
:1056600091EA030F10B581F000413FF589AC83F05A
:10567000004300F0EFB800002DE9F04101F5801C77
:10568000BCF5001FC0F2C3804FEA115C21EA0C5147
:105690000CF1FD0C41F480115FEA5C0C0CF5C07C50
:1056A00001D3400049413DA4890241EA905187025B
:1056B0008E0E0A0CA45D04FB04F602FB06F6C6F18E
:1056C0004046A4FB0662F60D46EA422606FB06F4B7
:1056D000A4FB01235242C3F1404338BF5B1EA6FB2B
:1056E00002420024E6FB0324D20B42EA4446A6FB16
:1056F0000623A1FB02E2A3FB07E4A4184FF000027B
:1057000052F10002E3FB01426442C2F1404E38BF55
:10571000AEF1010EA6FB04234FF00002E6FB0E32B1
:10572000A2FB03464FF00004B61954F10004E2FB5B
:105730000264A1FB06E6A4FB07E816EB08064FF09F
:10574000000858F10008E4FB01687642C8F14058AF
:1057500038BFA8F10108A2FB06E4A3FB08E52D1958
:105760004FF0000454F10004E2FB0854A1FB05E6ED
:10577000A7FB04E818EB06084FF0000656F10006F8
:10578000E1FB048618F1200556F10006A809A8F1EE
:105790001B08B10908F03F08B8F10A0F40EA86601B
:1057A0001CD901EB0C51BDE8F08100BFFCF5EEE81F
:1057B000E2DDD8D3CFCBC7C3C0BDB9B6B4B1AEACB0
:1057C000A9A7A5A3A19F9D9B9A9896959392908F28
:1057D0008D8C8B898887868584838281A0FB006875
:1057E00000FB01F208EB4208B8EB872807D5341814
:1057F00058EB0104D5D5401C51F10001D1E7341A12
:1058000078EB0104CDD4401E71F10001C9E75FEAD5
:105810004C0C5FEA9C5C0DD105D34FF0000001F009
:105820000041BDE8F081BDE8F04170B5FFF7C4FE6E
:105830006DDBFFBEBDE8F0414FF00000004970474E
:105840000000F87F10B591EA030F48BF83F00043D2
:105850003FF596AB841A71EB030C07D212198CF04A
:10586000004C43EB0C03001B61EB0C01DFF8A4E1DF
:105870004FEA1154A4EB135C1EEA430F18BF9EEAD3
:10588000445F00F0B08023EA6E03524221EA0451E3
:10589000C3EB6E0338BF5B1EDCF1200E25D322FA6A
:1058A0000CFE10EB0E0043FA0CFE41EB0E01CCF1A6
:1058B000200E03FA0EFE10EB0E0051F10001CCF1A8
:1058C000200E29D412FA0EF201EB0451BDE810406B
:1058D00058BF7047401C1CBFB2F1004F70470028F2
:1058E0000CBF491C20F00100704712EB020E43EB85
:1058F000030218BF4FF0010E4EEA4202ACF1200C39
:10590000DCF11E0E54D943FA0CFE10EB0E0051F1DF
:10591000FF31CCF11E0ED5D50EF1010E12FA0EFE9E
:10592000404141EB010101EB445C5FEA5C5C10D952
:1059300010EBDE7001EB045138BFBEF1004FBDE843
:10594000104018BF704700280CBF491C20F0010010
:10595000704730D24FEAD42C11F5001124F40064C2
:105960001BD0B1FA81F20B3AA41AA41ED2F1200383
:10597000914030FA03F31943904001EBCC71002CB5
:1059800001EB0451BDE81040A8BF704701F1C041D0
:105990004FF0000001F000417047B0FA80F310FAB8
:1059A00003F100D110BDE41A173C4805C90AE4E729
:1059B00001EB045110BD491001EB0451BDE810404A
:1059C0004FEA300002E04FF0000170474A0008BF84
:1059D0000042F8D0B2F5001F28BF704701F0004127
:1059E0004FF0000070479EEA445F07D011EA5E0F57
:1059F000BDE8104004BF002100207047BDE8104002
:105A000070B5FFF7D9FD00BF40DFF63E83F00041DF
:105A1000104670470000E0FF43004FEAD30C4FEA06
:105A20003C0C43401FBF40070CF1605113F0FE4F88
:105A300070471CF0006F03D100200CF0004170474C
:105A40000CF0004343EA507010B540EACC0000F07F
:105A50005CFA00BF000000924FEA0001FFF7FABDB8
:105A60004FF000414FF00000A1F500217047000009
:105A700090EA010F48BF81F0004100F1A282421A72
:105A80003CBF801A89184FEAD0524FF07F4C1CEA75
:105A9000410FA2EBD15318BF9CEA026F00F03B808C
:105AA0004FF0004C4CEA00204CEA012121FA03FCA3
:105AB00010EB0C0C1ED202F1FF325FEA1C2040EB0F
:105AC000C25038BF70471CF07F0F4FEA400C18BF20
:105AD000BCF17F4F38BF7047C3F12003994008BF26
